:1000000030C500004BC5000049C500000C944925CF
:1000100045C5000043C5000041C500003FC50000C4
:100020003DC500003BC500000C9424220C940C2319
:100030000C94C40F33C5000031C500002FC500006B
:100040002DC500002BC5000029C5000027C50000F4
:1000500025C500000C94002221C500001FC500002A
:100060001DC500001BC5000019C5000017C5000014
:1000700015C5000013C5000011C500000FC5000024
:100080000DC500000BC5000009C5000007C5000034
:1000900005C5000003C5000001C50000FFC4000045
:1000A000FDC40000FBC40000F9C400000501090202
:1000B000A10185020901A1000509190129081500FE
:1000C0002501950875018102050109300931158165
:1000D000257F95027508810609381581257F9501D0
:1000E00075088106050C0A38021581257F95017572
:1000F000088106C0C005010980A101850319012AF4
:10010000B700150126B700950175108100C0050CD8
:100110000901A101850419012AA002150126A002E6
:10012000950175108100C005010906A1018506052C
:100130000719E029E71500250195087501810205D9
:1001400007190029EF1500250195F07501810205B9
:10015000081901290595057501910295017503910D
:1001600001C005010906A101050719E029E71500ED
:100170002501950875018102950175088101050722
:10018000190029FF150026FF009506750881000556
:10019000081901290515002501950575019102959C
:1001A0000175039101C009023B00020100A0FA0998
:1001B0000400000103010100092111010001224492
:1001C0000007058103080001090401000103000084
:1001D0000009211101000122B60007058203200059
:1001E00001120100020000000832FC870201000138
:1001F0000200010C0353006F0066006C00650000F4
:10020000001A034A006F0073006500660041006435
:100210000061006D00630069006B000000040309C9
:1002200004808182838485868788898A8B8C8D8EE1
:100230008F9091929394A0A1A2A3A4A5A6A7A8A9E8
:10024000AAABACADAEAFB0B1B2B3B4C0C1C2C3C45F
:10025000C5C6C7C8C9CACBCCCDCECFD0D1D2D3D4D6
:10026000004350534C4B000A0A00556E646566000B
:1002700041646A757374005261697365004C6F77ED
:10028000657200426173650A004C41594552000A8B
:100290000A004D6F640A00436C6D6B0051777274F5
:1002A000000A0A0000AE00AF07087F0807003E6B97
:1002B0004F6B3E00C194B094C1001C3E7C3E1C00BC
:1002C000183C7E3C18001C577D571C001C5E7F5E4E
:1002D0001C0000183C180000FFE7C3E7FF000018EF
:1002E00024180000FFE7DBE7FF0030483A060E0065
:1002F000262979292600407F05050700407F05252E
:100300003F005A3CE73C5A007F3E1C1C0800081C7A
:100310001C3E7F0014227F2214005F5F005F5F009D
:1003200006097F017F00006689956A006060606051
:10033000600094A2FFA2940008047E04080010202C
:100340007E20100008082A1C0800081C2A08080043
:100350001E10101010000C1E0C1E0C0030383E3801
:100360003000060E3E0E06000000000000000000F7
:100370005F000000000700070000147F147F1400D6
:10038000242A7F2A1200231308646200364956206B
:100390005000000807030000001C2241000000413B
:1003A000221C00002A1C7F1C2A0008083E080800A6
:1003B0000080703000000808080808000000606035
:1003C00000002010080402003E5149453E00004252
:1003D0007F4000007249494946002141494D3300A0
:1003E0001814127F10002745454539003C4A4949F9
:1003F0003100412111090700364949493600464973
:1004000049291E00000014000000004034000000D4
:100410000008142241001414141414000041221482
:1004200008000201590906003E415D594E007C1248
:1004300011127C007F49494936003E41414122006A
:100440007F4141413E007F49494941007F090909F7
:1004500001003E41415173007F0808087F000041C0
:100460007F4100002040413F01007F0814224100ED
:100470007F40404040007F021C027F007F04081044
:100480007F003E4141413E007F09090906003E418F
:1004900051215E007F091929460026494949320049
:1004A00003017F0103003F4040403F001F204020E8
:1004B0001F003F4038403F006314081463000304EA
:1004C000780403006159494D4300007F41414100D8
:1004D000020408102000004141417F000402010293
:1004E0000400404040404000000307080000205442
:1004F000547840007F28444438003844444428005D
:10050000384444287F0038545454180000087E09A9
:10051000020018A4A49C78007F080404780000441A
:100520007D4000002040403D00007F102844000036
:1005300000417F4000007C04780478007C080404BB
:100540007800384444443800FC1824241800182447
:100550002418FC007C080404080048545454240067
:1005600004043F4424003C4040207C001C204020E8
:100570001C003C4030403C004428102844004C9073
:1005800090907C004464544C4400000836410000C4
:10059000000077000000004136080000020102045C
:1005A00002003C2623263C00000000000000000062
:1005B0008080E0F0F0FC70FCF07CF0FC70FCF0F06F
:1005C000E0808000000000000000000080808000CB
:1005D000000080800000000000808000808000001B
:1005E000008080000000000080808080800080808B
:1005F00000000000000000000000000000000000FB
:1006000000000000000000000000000000000000EA
:1006100000000000000000000000000000000000DA
:1006200000000000000000C0F0F8FC3E1E060100C3
:1006300000007F4141417F007F4141417F000080B8
:10064000C0E07E5B4F5BFEC00000C000DCD7DEDE9A
:10065000DED7DC00C0000000000000000000000049
:10066000000000000000000000000000000000008A
:10067000AAAAFFFFFFFFE0DFDF00DFDFE0FFFFFFF1
:10068000FFAAAA000000000000003E7FC1C1C17F98
:100690003E00FFFF0F3C783C0FFFFF00FFFF1C3EBA
:1006A00077E3C10000000000FFFF19191900FDFDEC
:1006B00000FEFC060600FEFC0606FCFC0606FEFC30
:1006C000001E7CE0780C78E07C1E0064F692927E3E
:1006D000FC00FEFC0606003C7ED2D2DE4C00000090
:1006E00000000000000000030F1F3F3C7870600016
:1006F00000007F4141417F007F4141417F00307BCD
:100700007F7830202030787F3B0003000F7F0F0F71
:100710000F7F0F0003000000000000000000000039
:1007200000000000000000000000000000000000C9
:1007300000000307071F071F071F071F071F0707E3
:1007400003000000000000000000000000000103A2
:100750000200000000000000000000000000000097
:100760000000000000000000000000000000000089
:100770000000000000000000000000000000000079
:100780000000000000000000000000000000000069
:100790000000000000000000000000000000000059
:1007A0000000000000000000000000000000000049
:1007B0000000000000000000000000000000000039
:1007C0000000000000000000000000000000000029
:1007D0000000000000000000000000000000000019
:1007E000000000000000000000DA0281FFD9F1DB08
:1007F00020A4A62EAF00A0C0D30000A1C8D3000043
:10080000AED580A81F408D14200029001E001F00B7
:100810002000210022002B0014001A0008001500FF
:100820001700390004001600070009000A00E10063
:100830001D001B00060019000500E300E200E000B7
:10084000E1002C00A8003500270026002500240028
:1008500023002D00130012000C0018001C003400AF
:1008600033000F000E000D000B002E003800370083
:10087000360010001100235222522A00E500280001
:10088000015229001E001F002000210022002B0021
:1008900014000100090013000A00390004001500CB
:1008A000160017000700E1001D001B0006001900DC
:1008B0000500E300E200E000E1002C00A8003500A4
:1008C000270026002500240023002D0033001C00F3
:1008D00018000F000D00340012000C000800110079
:1008E0000B002E0038003700360010000E00235297
:1008F00022522A00E5002800005201003A003B0085
:100900003C003D003E00010049004A006500B20085
:10091000010001002F0030002F0230020100010011
:10092000AC00AE00AB00BE00BD0001000100010044
:10093000010001000100440043004200410040006A
:100940003F00450048004D004600470001000100FF
:100950004B004E0031023100010001000100E700B0
:10096000E600E4000100010001004C00010001006C
:1009700001000100005201528452010001000100F7
:100980000100520001004B00010001005000510025
:100990004F004E00010001000100010001000100B4
:1009A0000100010001000100010028000100010018
:1009B000010001000100010001000100DC00D9007C
:1009C000DA00DB0001000100D000CD00CE00CF0036
:1009D00001000100035201000100010001000100BB
:1009E000D400D300D200D1000100000000000000BC
:1009F00001000000000000004052415200000000D1
:100A000000000000007C017C027C037C00000000F0
:100A100000000000000000000000000000000000D6
:100A200000000000000000000000000000000000C6
:100A300000000000000000000000000000000000B6
:100A400000000000000000000000000000000000A6
:100A50000000000000000000000000000000000096
:100A6000000011241FBECFEFDAE0DEBFCDBF11E0E2
:100A7000A0E0B1E0E4EEFEE402C005900D92A23EDB
:100A8000B107D9F725E0A2EEB1E001C01D92A2386E
:100A9000B207E1F70E942C1E0C941E27B1CA292F21
:100AA00030E048E0911102C09C0140E0C90164E0DF
:100AB000969587956A95E1F7009711F04C5F9C0138
:100AC000C9019695879596958795009711F04E5F89
:100AD0009C01C90196958795840F089580933905E7
:100AE00090933A05089580933B0590933C050895B3
:100AF00021E030E002C0220F331F8A95E2F7809197
:100B00003B0590913C05822B932BEDCF21E030E00B
:100B100002C0220F331F8A95E2F72095309580910D
:100B20003B0590913C0582239323DDCF9A3090F5CD
:100B3000863080F5E82FF0E086E0989FE00DF11D0B
:100B4000112451E0E1FD54E0E0FD550FE2FD529526
:100B500083E0F695E7958A95E1F7EE0FFF1FEE0F1C
:100B6000FF1FE55FFA4F20E030E070E04191DF01C8
:100B7000CB01022E02C0969587950A94E2F78695DE
:100B8000880B8427852384278E932F5F3F4F243043
:100B9000310561F70895292F9A3070F5863060F598
:100BA00090E036E0239F800D911D1124682F67701F
:100BB00023E0969587952A95E1F7FC01EE0FFF1F3C
:100BC000EE0FFF1FE55FFA4F40E050E080E021911B
:100BD00030E0062E02C0369527950A94E2F7217080
:100BE000042E01C0220F0A94EAF7822B4F5F5F4F59
:100BF0004430510561F7089580E00895E091420581
:100C000090914105E91302C080E008959F0157E0EB
:100C1000E59FF0011124ED5BFA4F5181561306C098
:100C20005081581303C05581541305C02F5F3F4FA7
:100C3000F901E770E7CF81E00895809142052091A6
:100C40004105281301C0089501968770FACF90914D
:100C50003D058095892380933D05282F277061F4F9
:100C6000891751F090913F0592FF06C086958695B1
:100C700086954CDF10923D05089580913605909140
:100C80004005892B909137059115C9F0892B9091DA
:100C90004E01913021F490913E0597FD11C096E0F0
:100CA00026EE31E040E09150F90150812F5F3F4F37
:100CB00051114F5F9111F7CF4111109237050895EF
:100CC0009EE12EEE31E0EECF8095982F8091360593
:100CD0008923809336050895972F7A30C8F46630BB
:100CE000B8F48530C0F470E026E0929F600D711D6D
:100CF00011249CE3899F600D711D1124FB01EE0FEF
:100D0000FF1FE65FF74F85919591282F822F089559
:100D100020E090E0FBCF21E0FCCF803E9105D1F1B7
:100D2000C8F48133910509F481C048F489329105F2
:100D300009F471C08A32910509F47FC0089589339E
:100D40009105E1F082389105C9F08533910509F4E8
:100D50005DC00895843E9105D1F148F4823E91052D
:100D600031F1833E910541F181EE90E00895863E98
:100D70009105C1F1873E9105F1F1089520913E055D
:100D8000237009F064C020913F0523FF14C089E25D
:100D900090E0089520913E0520FD45C030913F052B
:100DA00030FF09C024FD24C083EE90E00895209117
:100DB0003E0522FDF7CF089520913E0522FD44C057
:100DC00030913F0530FD43C024FFF5CF11C0209185
:100DD0003F0521FFF0CF80913E0584FD09C087EEDD
:100DE00090E0089520913E0523FFE5CF24FFF7CF43
:100DF00080E090E0089520913E0523FD2BC03091C6
:100E00003F0531FFE1CF84EE90E0089520913E054B
:100E100025FFD1CFBCCF20913E0525FD1EC02091DE
:100E20003F0523FFC8CF89E390E0089520913E0558
:100E300026FFC1CF8AE290E0089520913E0526FF6B
:100E4000BACF81E390E0089582EE90E0089580EEBD
:100E500090E0089586EE90E0089585E390E008958F
:100E600090913E0592FF10C041E0282F247124305C
:100E700009F040E031E0282F2871283009F030E0F7
:100E8000431711F02CE0822793FF10C041E0282F78
:100E90002471243109F040E031E0282F28712831F5
:100EA00009F030E0431711F02CE0822730913F0524
:100EB00030FF10C051E0282F2171213009F050E09F
:100EC00041E0282F2871283009F040E0541711F034
:100ED00029E0822731FF10C041E0282F2171213104
:100EE00009F040E031E0282F2871283109F030E086
:100EF000431711F029E0822794FF02C083FD877E0B
:100F000008950F931F93CF93DF9307DFEC01D23542
:100F100008F04DC0D03508F0C3C0C03ED10530F553
:100F2000CD3CD10508F09AC0C83AD10578F4C53A4D
:100F3000D10508F090C0C130D10599F1CE010497D8
:100F4000813A910570F1C0E0D0E02BC0CE01885A03
:100F500091094B97C0F7C85AD0E0CC0FDD1FCB5892
:100F6000DE4F0990D881C02DD4641BC0D03490F4DA
:100F7000D03208F0A8C0C83ED10598F0CE019150FB
:100F80009F3108F78D2F6CDF082F8C2F90E0C5DE86
:100F9000902B54C08C2F90E0C0DEDF70C82FD92B6F
:100FA000D06ACE01DF91CF911F910F910895C03883
:100FB00082E5D807B8F5C03682E5D80708F056C0F4
:100FC000C03482E5D807C8F4C03282E5D80708F0FB
:100FD00047C08C2F8695869520E2829FC001112400
:100FE000C37021E030E002C0220F331FCA95E2F740
:100FF000E901C82BD92BDD68D4CF8C2F8695869537
:10100000877020E2829FC0011124C37021E030E08C
:1010100002C0220F331FCA95E2F7E901C82BD92B72
:10102000DC68BFCFC03C82E5D80750F48C2F8F71AD
:10103000C03AD24580F5982F84EF906AEC01B1CF89
:10104000CE01805C9245809708F07DCFDC2FDF7168
:10105000C0EFD06AA6CFA497D064A3CFD065A1CFAC
:101060008C2F8F71D82FC1EFD06A9BCF8C2F869594
:101070008695877020E2829FC0011124C37021E011
:1010800030E002C0220F331FCA95E2F7E901C82BF6
:10109000D92BDA6886CFE4DEC0E0D82FD06281CFCA
:1010A0008C2F8F71DDDE93E0CC0FDD1F9A95E1F779
:1010B000DF70282F84FF04C090E1899F90011124E4
:1010C000C22FD0696ECF8D2F8F71CADE082F8C2F63
:1010D00090E023DE902BEC01E1CFCF92DF92FF92E4
:1010E0000F931F93CF93DF936C0100913B051091F9
:1010F0003C058091390590913A05082B192BCFE0DA
:10110000D0E081E090E00C2E02C0880F991F0A9475
:10111000E2F780239123892B61F4219790F7F12C3A
:101120008F2DDF91CF911F910F91FF90DF90CF9086
:101130000895FC2EB6018C2FCFDDE3DE019769F315
:10114000EFCF1F93CF93DF93FC012581C081D18125
:10115000CE01211571F0611561F0BFDF182F682FE6
:10116000CE01E4DCBE01812FB7DDDF91CF911F916D
:10117000089511DD182FF6CFCF93DF93EC01ADDF8B
:10118000BE01AADDBEDEDF91CF910895FC0124816E
:10119000211599F080819181EFDF282F92959F7022
:1011A000963099F060F4925F9F70923030F4203F57
:1011B000B1F038F481E0283E38F080E008959A5F7D
:1011C000F3CF81E0243FC9F7089591E0213F09F072
:1011D00090E081E0283E08F080E0892B089581E0CE
:1011E000089580E00895F894E82FE295EF70F0E01C
:1011F00041A18F7021E001C0220F8A95EAF7922F5A
:101200009095942391A392A1822F892B82A3789405
:10121000089581E08093850408959091B204292F68
:1012200030E07091B304A9014395437050E0741706
:10123000150689F020553B4F60FB87F9F90184833F
:101240009F5F93709093B2048091B0048F5F8093FE
:10125000B00481E0089580E0089590E06115D1F038
:10126000885F9E4FFC0180818F3F99F0E82FE295C7
:10127000EF70F0E041A18F7021E001C0220F8A954C
:10128000EAF7922F9095942391A392A1822F892B14
:1012900082A30895875F9E4FE5CF90E06115A9F086
:1012A000885F9E4FFC0120812F3F91F0E22FE29555
:1012B000EF70E05EF0E0808190E02F7002C09595C5
:1012C00087952A95E2F781700895875F9E4FEACF50
:1012D00080E00895FC01680F791F8FEF41E3919141
:1012E000892728E030E0982F990F87FF09C0892FC0
:1012F000842721503040B9F7E617F70781F70895A2
:10130000892FF7CF382F25EB3203C001112497FF27
:1013100004C080589109892F089580589F4FFBCFB2
:1013200080912D0580FD14C081FD14C082FD16C082
:1013300080912C05811581F08E3180F420E5829F0B
:10134000C00111246EE170E00E94AB26862F089543
:1013500084E1089588E2089588E0089580E508957D
:1013600080912D0580FD17C081FD17C082FD19C039
:1013700080912B05811599F0883298F428E0829F9E
:10138000C001112468E270E00E94AB26611571056E
:1013900051F0862F089562E0FCCF64E0FACF61E05F
:1013A000F8CF68E0F6CF81E008958091D9048115E7
:1013B00071F0E0910105F0910205309739F001904C
:1013C000F081E02D309711F00995089580E008959F
:1013D000A3E0B0E0EEEEF9E00C947826209125022F
:1013E0003091260228173907B1F080932502909397
:1013F0002602E0910105F0910205309761F000842A
:10140000F185E02D309739F023E029838A839B838F
:10141000CE01019609952396E2E00C949426A3E070
:10142000B0E0E5E1FAE00C947826209123023091B7
:10143000240228173907B1F08093230290932402E5
:10144000E0910105F0910205309761F00084F1858B
:10145000E02D309739F024E029838A839B83CE01E5
:10146000019609952396E2E00C94942690914E0102
:10147000913099F0A6EEB1E0EFEF90E02C91821759
:1014800059F01196EF3F19F4211101C0E92F9F5F28
:101490009630A1F7EF3FC1F4089590913E0597FF74
:1014A000E9CFE82FE695E695E695803FA8F7F0E0CE
:1014B000E451FE4F877021E001C0220F8A95EAF7C0
:1014C0008281822B82830895FE2FFF0FFF0BEC5148
:1014D000FE4FF8CF90914E01913021F490913E054E
:1014E00097FD0CC0E6EEF1E09191891302C0DF0197
:1014F0001E9291E0EC3EF907B9F70895E82FE695C2
:10150000E695E695803FC8F7F0E0E451FE4F9DEF89
:1015100081FD97EF80FF959582FD929582818923C9
:101520008283089580914D0108952FB7F8946091BA
:101530001F027091200280912102909122022FBF00
:1015400008958091D904811539F0EFDF462F572F88
:10155000BC01CB01BA010895E8DFDC01CB01409169
:10156000DB045091DC046091DD047091DE04480FCF
:10157000591F6A1F7B1FEDCF87E797E7809300080D
:101580009093010888E19AE00FB6F894A8958093AB
:1015900060000FBE90936000FFCFFC012091150208
:1015A000309116022617370748F06115710529F4A6
:1015B0009091E8009E779093E8009B0190E02115C0
:1015C000310541F4911106C08091E80082FF32C0DC
:1015D00080E00895809160048115C1F18530C1F1EA
:1015E0008091E80083FD30C08091E80082FDECCF5F
:1015F0008091E80080FFE3CF8091F3004091F200FA
:10160000582F2115310519F04830510558F091E057
:101610004830510509F090E04091E8004E77409342
:10162000E800CDCF81918093F100215031094F5FC7
:101630005F4FE7CF80916004811541F0853041F024
:101640008091E80083FFC0CF81E0089582E0089593
:1016500083E00895982F9093E900891771F07091B5
:10166000EC002091ED005091F00021FD09C09F5F3A
:10167000973089F78093E9000895762F242F50E062
:101680003091EB003E7F3093EB003091ED003D7FD9
:101690003093ED003091EB0031603093EB007093AC
:1016A000EC002093ED005093F0002091EE0027FD18
:1016B000DECF089580910F0287FF13C08091E8006C
:1016C00082FF06C08091E8008B778093E800089540
:1016D000809160048111F2CF08958091600481159A
:1016E000D9F38091E80080FFF8CF8091E8008E77F1
:1016F000ECCF2091E4003091E50095E6A90120911E
:10170000EC00822F817020FF06C08091E80080FFEE
:1017100006C080E008952091E80022FD1AC0809163
:101720006004811589F0853089F08091EB0085FD9A
:101730000FC02091E4003091E50042175307F9F201
:101740009150E1F684E0089582E0089583E00895E1
:1017500081E00895CF93DF93C8EDD0E088818F7E3C
:101760008883E7EDF0E080818160808384E082BF40
:1017700081E080930E0288818E7F8883E2EE108262
:101780001092DA00A1EEB0E01C9288818F778883F6
:1017900088818068888388818F7D888319BC1092B6
:1017A000600410920D0210925F0410920C02A0EEE1
:1017B0008C918B7F8C9388818160888342E060E08C
:1017C00080E048DFA1EEB0E08C918E7F8C93E2EE5A
:1017D000F0E0808181608083808188608083E0EE9A
:1017E00080818E7F8083888180618883DF91CF9123
:1017F0000895E8EDF0E080818E7F80831092E20012
:101800001092DA001092E100A0EEB0E08C918160BD
:101810008C9380818F77808319BCA7ED8C918E7F0C
:101820008C9380818F7E808310920E020895A0E0B9
:10183000B0E0EDE1FCE00C9470267C016B015A01F4
:101840008091BC040AE010E08A3010F001E010E062
:10185000C1E0D0E0B601C701F5010995811115C0BD
:1018600021960C171D078CF0CC9F9001CD9F300D59
:10187000300D112480E090E045E34A95F1F7000037
:10188000019682179307C1F7E5CFCDB7DEB7EAE03F
:101890000C948C260F931F93CF93DF93EB018A0157
:1018A00090916004943059F58093E9008FEF909106
:1018B000E80095FD06C095ED9A95F1F7000081507E
:1018C000B1F78091E80085FF1AC013DF811112C0C3
:1018D0008091E80085FD06C08091E8008E778093B6
:1018E000E800F3CF88818093F1000150104011F09F
:1018F0002196EECF8091E8008E778093E800DF910B
:10190000CF911F910F910895CF93DF93EC0148E0A1
:1019100050E0BC0181E0BEDF88E0FE01A7E1B2E05B
:1019200001900D928A95E1F7DF91CF91089540E201
:1019300050E0BC0182E0AECF46E050E0BC0182E066
:10194000A9CF43E050E0BC0182E0A4CF90913F05D5
:1019500092FB222720F9281771F080FB92F99093CF
:101960003F0560913E0570913F0584E090E00E9444
:101970000A2782E06CC9089580914E01813061F59B
:1019800080913E0587FF28C078D98093ED0140E221
:1019900050E061EE74E08CEE91E00E94CD26892B40
:1019A000D1F080E2ECEEF1E0A1EEB4E001900D9216
:1019B0008A95E1F7E0910105F0910205309759F021
:1019C0000480F581E02D309731F086E08093EC01C2
:1019D0008CEE91E00995089550D98093E40148E098
:1019E00050E063E075E084EE91E00E94CD26892B03
:1019F00091F388E0E4EEF1E0A3E0B5E001900D9210
:101A00008A95E1F7E0910105F0910205309719F30D
:101A10000280F381E02D3097F1F284EE91E0DACF8D
:101A2000811531F090913605982B90933605A4CF0F
:101A30000895811511F048D99FCF0895A1E0B0E035
:101A4000E4E2FDE00C946826A62E4A011901680123
:101A5000082F880F110BC8010E94E625B82E8115AA
:101A600009F465C093E0000F111F9A95E1F7F801A2
:101A7000EC5EFE4F8381482F50E0811141E00C5E07
:101A80001E4FF8016481758168567B4FCE01019627
:101A90000E94DA26F401408051806280738045DD27
:101AA000DC01CB0184199509A609B7098436910593
:101AB000A105B10530F4B701C6010CDC9981891785
:101AC000B1F10A2D1A2D110F110BC8010E94E62544
:101AD000B82E811106C0B12C8B2D2196E2E10C9419
:101AE000842683E0000F111F8A95E1F7F801EC5E70
:101AF000FE4F8381482F50E0E816F10408F4A70157
:101B00000C5E1E4FF8016481758168567B4FC101E0
:101B10000E94DA26B701C601DDDB99818913DBCF8C
:101B200004DDF4016083718382839383D5CFA701A1
:101B3000B601C1010E94DA26CFCFA5E0B0E0E3EA0A
:101B4000FDE00C9472266B017D0109E914E0CE01E1
:101B500001969C0144E954E061E080E06FDF81156B
:101B600059F095E09E012F5F3F4FF901AFE8B4E0D7
:101B700001900D929A95E1F795E0EFE8F4E0D60137
:101B800001900D929A95E1F72596E8E00C948E2647
:101B9000A8E0B0E0EEECFDE00C9474267D0104EAD0
:101BA00014E09E012F5F3F4F47E854E064E083E07C
:101BB00045DF082F811581F19091A304809186045F
:101BC000981751F110E09091A7048091A60489170D
:101BD000E9F0E92FF0E0E456FB4F848587FB6627A8
:101BE00060F99F5F93709093A7049091A5049F5F05
:101BF0009093A5048F7711DB182F8111E4CF85E036
:101C000090E00E94E6251823012F02C01111F7CFA2
:101C10008091A30480938604802F2896E6E00C949C
:101C20009026A0E0B0E0E7E1FEE00C947226EC0123
:101C300045E050E06EE974E00E94CD268C01C09032
:101C40008B04D0908C04E0908D04F0908E046DDCB9
:101C5000DC01CB018C199D09AE09BF0984369105C1
:101C6000A105B10518F4C801892BF9F0809125016F
:101C70009091260188569B4F20912401422F50E0DD
:101C8000263008F045E0BE010E94DA2682E090E0AE
:101C90000E94E625811551F048DC60938B04709317
:101CA0008C0480938D0490938E0481E0CDB7DEB7D1
:101CB000E8E00C948E26CF92DF92EF92FF921F9372
:101CC000CF93DF9300D000D0CDB7DEB7C0908104B2
:101CD000D0908204E0908304F090840426DCDC0140
:101CE000CB018C199D09AE09BF0911E0843691051D
:101CF000A105B10568F125DCDC01CB010296A11D2F
:101D0000B11D89839A83AB83BC83809145019091F7
:101D1000460188569B4F20914401422F50E02530C8
:101D200008F044E09E012F5F3F4FB9010E94DA2680
:101D300086E090E00E94E625182F811549F0F5DB3A
:101D4000609381047093820480938304909384044D
:101D5000812F0F900F900F900F90DF91CF911F91D7
:101D6000FF90EF90DF90CF900895AB0124E630E034
:101D7000BC0188E70E941D249C0181E0232B09F00F
:101D800080E00895809157048115E9F0CEDBDC01F5
:101D9000CB01805A9541AF4FBF4F80935804909329
:101DA0005904A0935A04B0935B04809156048111A6
:101DB0000AC062E070E086EA92E0D7DF811519F090
:101DC00081E080935604089580915704811561F055
:101DD00080915604811541F062E070E084EA92E05F
:101DE000C4DF81111092560408951F93CF93DF939F
:101DF000162F8A3031F481E085D0DF91CF911F9189
:101E000008958D3011F480E0F7CFC0915302D09146
:101E1000540296E0FE01ABE4B2E001900D929A9577
:101E2000E1F7803E78F186E019928A95E9F7C09152
:101E30005302D0915402111131C046E050E0BE016E
:101E40008BE492E00E94CD269E0125553240892BDD
:101E500081F52A5F3F4F40915C04642F70E0C90117
:101E60000E945426481B463010F4240F311D323096
:101E700010F020E030E02B5A3D4F20935302309376
:101E80005402BBCF96E0899FB001112468557D4F65
:101E900046E050E0CE010E94C426C9CF9E012A5FD1
:101EA0003F4FFE012E173F0741F2808180958193BD
:101EB000F9CFC90145E0969587954A95E1F741E04C
:101EC00050E0BA0102C0660F771F8A95E2F7CB0196
:101ED0006091510270915202862B972BB9016B5F72
:101EE0007F4FE5E076956795EA95E1F702C0440FEC
:101EF000551F6A95E2F7842B952B8093510290939E
:101F00005202A7CFCF93382FE0915302F0915402A1
:101F1000E555F24020915C04622F70E0CF010E94F1
:101F20005426281B822F311569F066E00E949F26F7
:101F3000C82FC11102C0CF910895C15060E080E266
:101F400054DFF7CF8E0F9F2F911D923010F080E05D
:101F500090E08B5A9D4F8093530290935402EBCFA5
:101F60001F93CF93DF93EC01162FFE018491811113
:101F700004C0DF91CF911F910895612F36DF219624
:101F8000F4CFEEDF81E0BECF1F921FB61F92112467
:101F90008F939F93AF93BF9380915E04811113C081
:101FA00080911F0290912002A0912102B091220203
:101FB0004196A11DB11D80931F0290932002A09312
:101FC0002102B0932202BF91AF919F918F911F90F8
:101FD0001FBE1F9018952FB7F89480911F02909103
:101FE0002002A0912102B09122022FBF0895CF9329
:101FF000DF93EC01F0DF8C1B9D0BDF91CF910895F7
:10200000AFE0B0E0E6E0F0E10C946F26FE0131961F
:10201000DF018AE01D928A95E9F78AE6C82E81E001
:10202000D82E7F01AE2E9F2C05E711E0F60181919D
:102030006F018F3F09F43CC0F894E82FE295EF70F0
:10204000F0E021A18F7041E001C0440F8A95EAF7CA
:10205000922F942B91A392A1842F8095892382A300
:10206000789400C0EFE6F1E031E0B12C21912F3FF0
:1020700079F0A22FA295AF70A05EB0E08C9190E0B5
:102080002F7002C0959587952A95E2F780FF85C04D
:1020900080E0B82A330F0E171F0741F7F60182912F
:1020A0008F3F09F0A0D880EA8A95F1F7F701B08256
:1020B0008FEFE81AF80A8FE691E08C159D0509F07C
:1020C000B5CF4AE050E06A2D792D8FEC94E00E9464
:1020D000CD26009749F02AE0EA2DF92DAFECB4E0C7
:1020E00001900D922A95E1F70091CE0410E00C5377
:1020F0001B4F892B09F453C081E08093C3046BDF2D
:102100008093C1049093C2048091D904811509F48D
:102110009DC07E018BE0E80EF11CF70185E0119275
:102120008A95E9F78091BC048A3008F05BC04DE9DC
:102130005DE0B701C8017BDB811509F476C041E1A0
:102140005EE0B701C80173DB811509F46EC048EC8D
:102150005DE0B701C8016BDB811509F466C04BE592
:102160005EE0B701C80163DB811509F45EC010921F
:10217000BC048091C00490E045E050E0B7018C536E
:102180009B4F0E94CD2621E02093BF04892B09F0AC
:102190003FC02F96EBE00C948B26832F7ACF809153
:1021A000C304811509F4B0CFE090C104F090C204DB
:1021B00012DF8E199F09059708F4A6CF45E050E07D
:1021C0006FEC74E0C8010E94CD26892B41F085E0B8
:1021D000EFECF4E0D80101900D928A95E1F71092AE
:1021E000C30492CFC090BD04D090BE04F4DE8C191D
:1021F0009D09843F914008F09ACF8091BF048115DA
:1022000041F2F70185E011928A95E9F71092BF0437
:10221000A091C004B0E0AC53BB4F85E0FE013B96FB
:1022200001900D928A95E1F7B4CF8091BC048F3F65
:1022300031F4D1DE8093BD049093BE04DECF8F5F76
:102240008093BC048A3008F494CFF3CFE090C004AC
:10225000F12CC7018C539B4F7C0185E0F801A9E963
:10226000B4E001900D928A95E1F765E070E089E9AC
:1022700094E030D88093980485E0EEE9F4E0D7014B
:1022800001900D928A95E1F788E0E0EBF4E0A4EA92
:10229000B4E001900D928A95E1F768E070E084EA7D
:1022A00094E018D88093A304C090AC04D090AD04FF
:1022B000E090AE04F090AF048091B8049091B9041E
:1022C000A091BA04B091BB04C816D906EA06FB0671
:1022D00009F45FCFC092B804D092B904E092BA0476
:1022E000F092BB0422D9C61AD70AE80AF90AC092AA
:1022F000DB04D092DC04E092DD04F092DE0449CFEE
:102300004F925F926F927F928F929F92BF92CF92E5
:10231000DF92EF92FF920F931F93CF93DF93809101
:102320005704811509F432C1C0914902D0914A0283
:1023300052DE8C1B9D0BC29708F44DC04CDE80937F
:10234000490290934A0285E592E08093530290936C
:1023500054028091D90460E0811509F43EC181EAFC
:1023600092E0FEDD80913B0590913C050E944F0577
:10237000813038F009F41AC160E082E992E0F0DDC2
:1023800004C060E08CE992E0FCDD60E08FE892E060
:10239000E7DD60E089E892E0F4DD80913B05909113
:1023A0003C050E944F05833009F40FC108F002C1BB
:1023B000823009F406C160E083E892E0D1DD60E09C
:1023C00087E692E0CDDD0E94D50981FB662760F9A2
:1023D00081E692E0D6DD8091510290915202892BE4
:1023E00009F4BAC080915704811509F4B5C08091F1
:1023F00055048111B1C0C6DC809151029091520206
:10240000009709F4A9C0C82FC170D0E010E080FD8A
:102410000FC041E050E01F5FEA01012E02C0CC0F67
:10242000DD1F0A94E2F79E0128233923232B99F319
:1024300080915D0480FFD5C0912F990F990F990F5E
:10244000392F395F80E023E09093020180930501EA
:10245000309303012093060124E630E047E050E08A
:1024600060E071E088E70E94D323892B09F074C0F3
:1024700080E2189FA001112480915D0480FFC3C0F9
:10248000E9E2F2E080E211928A95E9F734E5632E01
:1024900031E0732E80E591E04C0168E571E0D301F5
:1024A000ED913D01D4010D914D01040F152F111D2A
:1024B000F0E0E75DFD4F80E090E027E0B22EB81A33
:1024C000CC24C394082E01C0CC0C0A94EAF79801DE
:1024D0002B5A3D4F2901E12CD201FD902D01FC200A
:1024E0002B2D2E19277030E0AF2D022E01C0AA0F20
:1024F0000A94EAF7DA2E31952195310927703327AE
:1025000001C0F6942A95EAF7DF282081D22AD082EA
:10251000E3942E2D283001F70196319688309105ED
:1025200061F66615770509F0BACF04E610E020E2FF
:1025300049E252E060E488E70E946324892B61F459
:10254000C095D0958091510290915202C823D92311
:10255000C0935102D0935202809156048115B1F07C
:102560000E94950AC0915804D0915904E0915A04F0
:10257000F0915B04DC01CB018C1B9D0BAE0BBF0B00
:102580008F3F9F4FAF4FBF4708F41EDCDF91CF91C5
:102590001F910F91FF90EF90DF90CF90BF909F9091
:1025A0008F907F906F905F904F90089560E087E9E3
:1025B00092E0EACE843069F060E08AE692E0E1DC05
:1025C000FECE60E08DE792E0F9CE60E087E792E032
:1025D000F5CE60E080E792E0F1CE81E292E0C0DCEF
:1025E000FACE20E2129FC0011124880F492F441F08
:1025F000550B5195242F912F9295990F9076392F45
:10260000315E842F21CF4B5A5D4F04E610E020E26B
:1026100030E090CFE0DC9C01909130058091310555
:10262000982B21F020937E0430937F049091320503
:1026300080913305982B21F020937C0430937D0406
:10264000E0910105F0910205309759F00680F7817D
:10265000E02D309731F082E080932E058EE295E0F8
:1026600009950895611509F448C0E82FED5CE33140
:1026700050F4F0E0E05EF84D0C94BE260E94900904
:10268000819580933105C6CF0E949009FACF0E94B0
:102690009009819580933005F6CF0E949009FACF7A
:1026A0000E94B00980933205EECF0E94B009819557
:1026B000F9CF0E94B009819580933305E4CF0E9441
:1026C000B009FACF815D990B21E001C0220F8A95F4
:1026D000EAF780912F05822B80932F05D4CF80912C
:1026E0002D05816080932D05CECF80912D058260D0
:1026F000F9CF80912D058460F5CF409130058D3C58
:1027000059F48091310587FF0DC0109231054115B4
:1027100059F410922C0508C08E3C81F4809131054B
:1027200018169CF3411581F0809132059091330584
:10273000892B09F0A8CF10922B05A5CF8F3C41F42F
:1027400047FFF0CF10923005809131058115E0CF21
:10275000803D19F41416B4F3E5CF90913205893D0C
:1027600029F41916FCF610923205DCCF8A3D19F4D3
:1027700097FFD8CFF8CF909133058B3D29F497FF81
:10278000D1CF10923305CECF8C3D19F41916CCF36E
:10279000C9CF982F915D983078F4815D990B21E035
:1027A00001C0220F8A95EAF7822F809590912F051C
:1027B000892380932F05B6CF8D3D31F480912D056F
:1027C0008E7F80932D05AECF8E3D21F480912D0517
:1027D0008D7FF7CF8F3D09F0A5CF80912D058B7FA1
:1027E000F0CFCF93C82F8115C9F08450813A80F57E
:1027F00080914E01813021F480913E0587FD10C00B
:10280000E6EEF1E08081C817F1F0319681E0EC3E10
:10281000F807C1F78C2F0E94360AAED8CF910895E1
:10282000EC2FE695E695E695F0E0E451FE4F8281C7
:1028300090E04C2F477021E001C0220F4A95EAF743
:102840008223892B39F38C2F0E946A0A95D8E2CF14
:102850008C2F805E883060F4C77081E001C0880FE3
:10286000CA95EAF7C0913605C82BC0933605D5CF77
:102870008C2F855A833030F48C2F8452990B0E9410
:10288000E809CCCFEC2FE85AEB3150F4F0E0EE0F32
:10289000FF1FE555FE4F808191810E940F0ABECF38
:1028A0008C2F8D5C833108F0B9CF61E08C2FDADE9C
:1028B000B5CF811561F1982F9450913A18F40E9488
:1028C0006A0A5AC8982F905E983058F4982F81E081
:1028D00091FD84E090FD880F92FD82950E94640630
:1028E000F0CF982F955A933020F480E090E00C942C
:1028F000E809982F985A9B3120F480E090E00C94DE
:102900000F0A982F9D5C933110F460E0ABCE0895D0
:102910001F93CF93DF93182FEB0163DF8FE99FE0C5
:102920000197F1F700C000002197C1F7812FC1DFA7
:10293000DF91CF911F91089580E09091B304209191
:10294000B204291731F1E92FF0E0EC54FB4F8081FC
:10295000282F2F779F5F93709093B3049091B104C9
:102960009F5F9093B104211541F0213061F46AE03A
:1029700070E087FF0CC08EE405C06AE070E087FF5E
:1029800004C089EAC5DF81E0D8CF8AEAFBCF8BE4B7
:10299000F9CF08951092360580914E01813019F5D6
:1029A00080913E0587FF1FC0EEEEF1E08EE11192AF
:1029B0008A95E9F780E090E00E94E80980E090E0E5
:1029C0000E940F0A109240050E94BC0CEEE2F5E056
:1029D00086E011928A95E9F710922C0510922B054A
:1029E00010922D0517CEE6EEF1E086E0E0CFD2DFC3
:1029F00088E19AE00FB6F894A895809360000FBE26
:102A000090936000FFCFAAE2B0E0E9E0F5E10C941A
:102A100077268FE092E0FC0101962091F10020835F
:102A200022E087319207B9F780911002893009F4CA
:102A300059C0C8F4823009F4B6C0833009F485C0A7
:102A4000813089F18091E80083FFEAC080910F0214
:102A5000909110029A3008F0E3C0E92FF0E0ED5CAD
:102A6000F84D0C94BE268A3009F48CC08B3051F797
:102A700080910F02813231F78091130290911402FC
:102A8000892B01F78091E800877F8093E8000E94FE
:102A90005A0B81E090911102911101C080E0809366
:102AA0004E0178DFCFCF80910F02813A59F68091A5
:102AB000E800877F8093E8008091130290911402D0
:102AC000892B61F060E080E090E070E00E94CD0A28
:102AD0008091E8008B778093E800B4CF68E087E1CD
:102AE00092E0F3CF80910F02813209F0ABCF809159
:102AF000130290911402029708F0A4CF8091E8008D
:102B0000877F8093E8008091E80082FF19C02091C0
:102B1000F3008091F200922F029731F48091F1003E
:102B2000813011F0863021F48091F10080934D01C5
:102B30008091E8008B778093E8000E945A0B82CF47
:102B4000809160048111DFCF7DCF80910F02813AA7
:102B500009F078CF8091130290911402892B09F02B
:102B600071CF8091E800877F8093E8008091E80032
:102B700080FFFCCF80914E018093F1008091E800AE
:102B80008E77D9CF80910F02813209F05BCF80918F
:102B9000E800877F8093E8000E945A0B8091120220
:102BA00080934C014FCF80910F02813A09F04ACFB8
:102BB0008091E800877F8093E8008091E80080FFA3
:102BC000FCCF80914C01D8CF803889F0823841F514
:102BD000809113028F70873018F58093E9008091FF
:102BE000EB0085FB882780F91092E90006C08091F0
:102BF0005F04880F90910C02892B9091E800977FD9
:102C00009093E8008093F1001092F1008091E80029
:102C10008E7723C0811116C080911102813011F18D
:102C20008091E80083FF0AC08091E800877F80934D
:102C3000E8008091EB0080628093EB00AA96E3E0CD
:102C40000C949326823061F780911102811581F0F6
:102C50001092E9008091E800877F8093E8000E944D
:102C60005A0BDECF933009F080E080935F04F0CF01
:102C7000809113028F70282F2150263088F6809380
:102C8000E9002091EB0020FFE3CF933031F48091F5
:102C9000EB0080628093EB00DBCF9091EB009061C2
:102CA0009093EB0021E001C0220F8A95EAF7209370
:102CB000EA001092EA008091EB008860EBCF81116E
:102CC000AFCF809111028F77182F8091E300807829
:102CD000812B8093E3008091E800877F8093E80058
:102CE0000E945A0B8091E80080FFFCCF8091E300A6
:102CF00080688093E30083E0111101C082E080933B
:102D000060048ECF8058823008F08ACF2091110263
:102D1000309112022C3D83E0380791F583E08A83DD
:102D20008AE289834FB7F894DE01139620E03EE0F3
:102D300051E2E32FF0E050935700849120FF03C04D
:102D400082958F703F5F8F708A30C0F0895C8D9361
:102D50001D922F5F243169F74FBF8091E800877F74
:102D60008093E8006AE270E0CE0101960E94CD0AED
:102D70008091E8008B778093E80052CF805DE7CFA9
:102D8000832F90E08330910519F160F48130910533
:102D900009F46CC08230910509F042CF8BE3E6EA7A
:102DA000F1E029C020911302309114028132910583
:102DB00009F453C08232910509F032CF2130310538
:102DC00008F45CC009F02CCF86EBECEAF0E013C00D
:102DD000822F90E0213099F182309105B9F100976E
:102DE00009F01ECFEDE1F2E0E4918E2FEDE1F2E08B
:102DF000009709F415CF2091E800277F2093E80081
:102E000020911502309116028217930708F49C0155
:102E100040E021153105B1F5411134C08091E80041
:102E200082FDA6CF80916004811509F4A1CF853081
:102E300009F49ECF8091E80083FFF0CF99CFE1E0C5
:102E4000F2E0E4918E2FE1E0F2E0D2CFE3EFF1E0A7
:102E5000E4918E2FE3EFF1E0CBCF2130310550F03C
:102E600009F0DECE89E0E1EDF1E0C5CF82E1E1EEEF
:102E7000F1E0C1CF89E0E8EBF1E0BDCF84E4E2E628
:102E8000F1E0B9CF80916004811509F471CF8530EC
:102E900009F46ECF8091E80083FD6ACF8091E8004D
:102EA00082FDBCCF8091E80080FFB3CF4091F3005A
:102EB0008091F200942F2115310519F08830910589
:102EC00050F041E0089709F040E08091E8008E77EB
:102ED0008093E8009ECF44914093F10031962150B9
:102EE00031090196E8CF803809F09ACE8091E80048
:102EF000877F8093E80080910D028093F10086CE59
:102F000081118ECE80911102182F823008F088CE68
:102F10008091E800877F8093E80010930D020E9463
:102F20005A0B1115A9F084E08093600442E061EC33
:102F300081E00E942A0B42E261EC82E00E942A0BAF
:102F400080916004843051F482E080934F0168CE18
:102F50008091E30087FDE7CF81E0E6CF81E0F5CF08
:102F6000FF920F931F93CF93DF93C62FD42FF22E90
:102F70008115A9F0609334052ED880932702909391
:102F8000280281E0C1FD84E0C0FD880FC2FD82956A
:102F90000E94100DCDB7DEB7E5E00C94912680912C
:102FA0003405681332C0009127021091280213D80B
:102FB000801B910B883C910540F51D2F105ECD17AD
:102FC000A1F0C77001E0802F01C0880FCA95EAF711
:102FD0000E94190D183048F48D2F877001C0000F22
:102FE0008A95EAF7802F0E94100D6AE070E08F2D1D
:102FF0008FDC81E0D1FD84E0D0FD880FD2FD829589
:10300000183040F60E94190DC5CF81E0C1FD84E063
:10301000C0FD880FC2FD8295F5CFA0E0B0E0E3E1EE
:10302000F8E10C9472267C01FC018481811521F168
:1030300061E0C7010E94A108EC01F7018581FE0152
:10304000E851FC47E730F10598F5E35CF84D0C9446
:10305000BE2626E241EE61EE83DF80913D0587705A
:1030600059F0F7018581811539F080913F0582FF84
:1030700003C082E00E942706CDB7DEB7E8E00C94DB
:103080008E2627E245EE65EEE7CF26E241EE60EEC2
:10309000E3CF27E245EE64EEDFCF26E241EE62EEBB
:1030A000DBCF27E245EE66EED7CF28E241E0EBCF5B
:1030B000811509F474C3109234059E0130572332F0
:1030C000310508F07AC384E090E00E94EB268093FB
:1030D0003E0590933F05FE01E150F047E232F105D5
:1030E00020F4EC5BF84D0C94BE2680913E05816087
:1030F00080933E0560913E0570913F0584E090E02D
:103100000E940A2747DCA9CF80913F058860809301
:103110003F05F0CF80913E058260EACF80913E0569
:103120008460E6CF80913E058860E2CF80913F05C4
:103130008160EDCF80913F058260E9CF80913E05AF
:103140008061D6CF80913E058062D2CF80913E05CE
:103150008064CECF1FDC80913E058068C9CF80910E
:103160003E058C60C5CF80913F058360D0CF8091B4
:103170003E058E7FBDCF80913F05877FC8CF809170
:103180003E058D7FB5CF80913E058B7FB1CF80917D
:103190003E05877FADCF80913F058E7FB8CF809170
:1031A0003F058D7FB4CF80913E058F7EA1CF80916A
:1031B0003E058F7D9DCF80913E058F7B99CFEADBC9
:1031C00080913E058F7794CF80913E05837F90CF8D
:1031D00080913F058C7F9BCF90913E05892F8B7FFF
:1031E00092FF8460877F92FF886082CF80913F0545
:1031F000982F909590FB80F990FB81F988CF909162
:103200003E05892F8F7B96FF806472CFC3DB909140
:103210003E05892F97FB87F980586ACF61E08EE0E1
:1032200090E00E94F02666CF60E0F9CF90913E05D5
:10323000892F8F7E94FF80615BCF90913E05892F0F
:103240008E7F90FF816054CF90913F05892F877FBB
:1032500093FF88605CCF89E2C2C289E2ABC29E0163
:10326000205E324520323105A0F4811124C0CF7197
:1032700081E090E002C0880F991FCA95E2F7EC0147
:10328000682F83E090E00E94F026CE010E946E0538
:10329000E4CE811571F1CB359CE7D90709F1CC3526
:1032A0009CE7D90791F0CA359CE7D907B9F0C1303E
:1032B0009CE7D907E9F0C3309CE7D90799F0C1151D
:1032C000DC47B9F467DB0E94BC0A80913F0500240B
:1032D00082FF0394802D0E94A60CBFCE81E0FBCF1D
:1032E00080E0F9CF6FEF7FEF80E090E00E940A2747
:1032F0007EDBF70100811181811509F446C0C80108
:103300000E946D08C82F682FC8010E949605B80159
:103310008C2F0E946C060E948107D82FC92FF701BD
:103320000581C680C2948FE0C82280913D058770D8
:1033300001F1D02E0115F1F0892F807F803461F0EA
:103340008D2F805E8830A8F0892F807E803221F416
:10335000D23078F0C11469F080913F0582FF09C036
:1033600082E00E94270680913D058770DD24D3947A
:103370008111D12CEC2FE295EF70C03C08F067C0B2
:10338000F0E0EA59F84D0C94BE26C8010E94CB0526
:10339000C82FBDCF1C2F1F70C03110F01295107FA9
:1033A0000115B9F0111569F08D2F805E883010F08D
:1033B000D11109C080913605812B809336050E947A
:1033C000BC0C8D2F3EC080914005812B8093400521
:1033D000F6CF8D2F6EDA1115D1F18D2F805E8830EA
:1033E00010F0D11104C0812F0E94640606C0109510
:1033F000809140058123809340050E94BC0C27C02A
:103400001C2F1F70C07FC03211F01295107FD13079
:1034100040F009F463C0011509F46EC0C11499F1BC
:10342000D0CF80913F0582FD2AC0011561F01115B2
:1034300039F080913605812B809336050E94BC0CB3
:1034400080E0CFD904C080E034DA1111CCCFD114A0
:1034500009F4BEC080913D0580FDBAC0F701158218
:103460008695869586950E947805C701D6DD809160
:103470003D058695869586950E948605A9C001150D
:1034800099F0C11004C0812F0E94100DE0CF8C2D47
:103490008130E9F680913705912F98231917B9F2F9
:1034A000812B80933705D3CFC110D1CF812F0E94BC
:1034B000190D90913705812F892329F0812F80954F
:1034C00089238093370580913805912F982309F43B
:1034D000BECF1095182310933805B9CF8C2D011548
:1034E00021F0863008F0B3CFCECF853008F0AFCFD3
:1034F000812F0E94190DABCFC114D1F3D93361F4E0
:103500008FEF97EE23E0815090402040E1F700C01C
:1035100000008D2FCED99BCF8FE39CE90197F1F767
:10352000F6CF8C2F869586958370813060F009F0F8
:103530008ECF8D2F9C2F9370011102C080E090E000
:103540000E940F0A84CF8D2F9C2F9370011102C00F
:1035500080E090E00E94E8097ACF602F8D2F82D81A
:1035600076CF8C2F837009F046C001112FC04D2FEC
:10357000429546954770440F440F2D2F2F7030E031
:10358000042E02C0220F331F0A94E2F780E090E07D
:10359000D4FF09C08FE090E002C0880F991F4A95C0
:1035A000E2F780959095C695C695C370C230D1F06C
:1035B000C330A9F04091390550913A05C13069F006
:1035C000822B932B842395230E946E050E94D5099C
:1035D00060E0C7010E94A1084FCD242B352B822B20
:1035E000932BF2CF822B932B2091390530913A0502
:1035F00082279327E9CF011591F1C0FFE7CF4D2F27
:10360000429546954770440F440F2D2F2F7030E0A0
:10361000042E02C0220F331F0A94E2F780E090E0EC
:10362000D4FF09C08FE090E002C0880F991F4A952F
:10363000E2F780959095C695C695C370C230B9F0F3
:10364000C33091F040913B0550913C05C13051F0A1
:10365000822B932B842395230E947305B7CF82304E
:1036600070F6B4CF242B352B822B932BF5CF822BE6
:10367000932B20913B0530913C0582279327ECCF7B
:10368000CF70011539F08C2F0E9478058D2F0E9484
:10369000100D9CCF8D2F0E94190D8C2F0E94860536
:1036A00095CFD23F99F168F4D03FC1F0D13F89F076
:1036B000011509F45CC0C11409F456C08D2F91D8CE
:1036C00085CFD33F51F1D43F99F790913F0592FDBB
:1036D00032C08C2F8F71011509F31CC08C2D011580
:1036E00099F0853008F072CFCF7181E090E002C090
:1036F000880F991FCA95E2F7EC0180913B059091E4
:103700003C058C279D27A8CF8630ECCF8C2F8F715E
:103710000111C4CF0E94780559CF80E090E00115D7
:1037200009F49ACFCF7181E090E002C0880F991F11
:10373000CA95E2F791CF011561F08C2F8F7192FF3E
:10374000E9CF982F990F990F990F936090933D05AA
:10375000E1CF81E00E9427068C2D823008F436CF1D
:1037600082E00E94270632CF8C2F8F71D3CFC114F5
:1037700099F0D93361F48FEF97EE23E081509040B8
:103780002040E1F700C000008D2F93D81FCF8FE3BA
:103790009CE90197F1F7F6CF8C2F8F717FCFC6315F
:1037A0009CE7D90709F05BCD80913505811509F4B7
:1037B00054CD85E30E946A0A14C0C6319CE7D9073C
:1037C00009F04DCD809136058A7A91E0811101C0D2
:1037D00090E090933505811509F43DCD85E30E9475
:1037E000360A0E94BC0C39CC80918105803170F47E
:1037F00080918005811551F0E091420520914105AD
:1038000030917C0540917B052E1301C00895BF01C6
:1038100087E0E89FF0011124DF01AD5BBA4F1496F9
:103820008C911497811551F111968C9111978313F6
:1038300025C08C91841322C015968C911597811107
:103840001DC012968D919D91A0917D05B0917E0530
:103850008A1B9B0B883C910588F4809181058F70B1
:10386000806180938105E75BFA4F80818F70806172
:1038700080838BE795E0D1DB0C941D066F5F7F4F53
:10388000FB01E770C1CFADE0B0E0E9E4FCE10C94EE
:103890006D268C0186E0F801DE01189601900D92EC
:1038A0008A95E1F7F801F580C4808BE7882E85E0E2
:1038B000982E70907F0571101FC0C114D1F0F114C3
:1038C00009F415C1C8010E94C608811509F40FC189
:1038D00087E0F801D40101900D928A95E1F78C2DD3
:1038E000813031F480917B0590917C050E94BC0869
:1038F0007BDFFF24F39453C0E080A280B380D0909C
:10390000800580917D0590917E059501281B390BDE
:10391000D11409F4B5C0283C310508F08DC0C1149C
:1039200041F390917C05C18080918105803108F040
:1039300056C0C91213C090917B059E110FC0F110A3
:1039400048C08F708061809381058BE795E065DBCF
:1039500080918105F8018683F12C21C0F11039C0D6
:1039600040E06C2D8E2D0E94FE0540E06C2D8E2DCA
:103970000E94FE05F82E8111EFCF888599850E945F
:10398000BC08292F22952F70903470F49F7022303C
:1039900098F09115A9F0F8019681903188F48F2D57
:1039A0002D96EDE00C9489262A5F2F70223060F06E
:1039B000C80133DBFD2CF3CF911511F0811579F39C
:1039C000805E883060F3F4CF803F48F3815F8330BE
:1039D000F9CF80918105816080938105BDCFC912A7
:1039E00007C090917B059E1103C0F11409F469C0D2
:1039F000C8010E94C608811509F479C0F11409F4C0
:103A000076C080918105803270F020917B053091E5
:103A10007C0529833A83AB82BC827D821E828F83A0
:103A2000CE010196FADA87E0F801ABE7B5E0019044
:103A30000D928A95E1F75CCF80918105803148F441
:103A40008BE795E0EADAF40187E011928A95E9F7CD
:103A500083CFC11409F44DCF20917C0591812913A6
:103A6000C7CF90917B059E11C3CFF110C1CF868344
:103A7000C801D3DAF40187E011928A95E9F739CFCA
:103A8000283C310500F7C11409F433CFF11479F162
:103A900090917C058181981320C080917B058E11C7
:103AA0001CC08091810580FD0FC0803168F0868345
:103AB000807F803F39F08681982F907F905F8F7054
:103AC000892B8683C801A9DA87E0F801ABE7B5E066
:103AD00001900D928A95E1F70CCFC8010E94C608AB
:103AE0008111A1CF80918105816080938105C801FA
:103AF00094DAFFCEABE1B0E0E0E8FDE10C9476268D
:103B00004E8B5F8B688F798F8A8F192F9B8F9111C6
:103B1000109240051D8A86E0FE017696DE011F9612
:103B200001900D928A95E1F70A8D011561F00B8BDA
:103B30001C8B61E0CE010F960E94A10861E0CE01CE
:103B40000F960E94A1080B8B1C8B87E0FE013F960D
:103B5000DE01189601900D928A95E1F7CE01089644
:103B600092DE81112EC0209141053091420587E0FF
:103B7000AE01485F5F4FFA0147505109DA010190E9
:103B80000D928A95E1F78C858115D9F0822F90E00E
:103B90008395877090E0AC0134171506E1F097E04B
:103BA000929FD0011124AD5BBA4F9E012F5F3F4F12
:103BB000F90101900D929A95E1F7409341050E9419
:103BC0001D068091420590914105891311C06B96A5
:103BD000E4E00C9492260E94CA14109241051092BF
:103BE0004205EBE7F5E087E011928A95E9F7E9CF26
:103BF00027E0829FC00111248D5B9A4F44DE81151E
:103C000031F380914205909143050196877080932E
:103C10004205D7CFA6E0B0E0E0E1FEE10C947626C5
:103C20000E94EB0F8C018091DF049091E0048017DB
:103C3000910771F019821A820E94EB0FBC01498131
:103C40005A8180E090E056DF0093DF041093E00497
:103C50002696E4E00C949226CDB7DEB728970FB6EF
:103C6000F894DEBF0FBECDBF85B7806885BF85B72E
:103C7000806885BF84B7877F84BF0FB6F894A89506
:103C800080916000886180936000109260000FBE98
:103C900080E890E00FB6F894809361009093610003
:103CA0000FBE81E080934F0181EF98E08093E201A5
:103CB0009093E3010E94F90B0E94AA0B8091E2000D
:103CC00084608093E200789480916004811599F07B
:103CD0008091E9001091EC008F7010FB112717F90B
:103CE000182B1092E9008091E80083FD0E940315D3
:103CF0001F701093E90082E084BD93E095BD9AEFB8
:103D000097BD80936E001092DB041092DC04109239
:103D1000DD041092DE048091D80080618093D80089
:103D20008AE18A95F1F700C08091D900182F1170AF
:103D300080FD04C00E94F90B109260041093D90416
:103D40001093DA041093070111115FD6E0EBF4E051
:103D500088E011928A95E9F78091DA0491E0282FA2
:103D600029272093780490937B04811106C084EF67
:103D70008093090185EF8093080160E080E00E9454
:103D80002D0961E080E00E942D098FE891E0019704
:103D9000F1F700C0000010E080917B04181708F4D0
:103DA00082C08091DA0490E0811101C095E0909387
:103DB000CE0485E0891B8093C0040AE611E0F80177
:103DC00081918F018F3F11F00E94F30881E00F363F
:103DD0001807A9F74FE6E42E41E0F42E05E711E0BD
:103DE000F70181917F018F3F11F00E94F3080E15BA
:103DF0001F05B1F7E4ECF4E08AE011928A95E9F747
:103E0000EFECF4E08AE011928A95E9F780E090E027
:103E1000E2D7833E9E4F19F163EE7EEF80E090E0A3
:103E2000F9D760E082E090E0DBD781E090E080931A
:103E3000390510923A0561E083E0D2D760E074E181
:103E400084E090E0E7D760E070E0AB018FE090E0C5
:103E5000D9D760E070E0AB0183E190E0D3D782E096
:103E600090E0B1D780936B0484E090E0B4D7809366
:103E70003E0590933F050E9400108FEF96E721E0EA
:103E8000815090402040E1F700C000000E940010E7
:103E90008091C40480FF19C06FEF7FEF80E090E055
:103EA000B9D70E94BC0A60E0812F0E944D09082FFB
:103EB00061E0812F0E944D09E12FF0E0E758FB4FB0
:103EC000880F802B80831F5F67CF83E090E07BD7D4
:103ED00090E00E946E058091D904811509F4DCC040
:103EE00080E293E090935D0480935C0429D46BE0BE
:103EF00070E08FEF97E00E94B50E8115E9F1809197
:103F00005D0465E070E081FDCAC08AEF97E00E9421
:103F1000B50E811589F16DE070E088EE97E00E94A2
:103F2000B50E811549F10E94950ADC01CB01805A3A
:103F30009541AF4FBF4F8093580490935904A0937D
:103F40005A04B0935B04E5E5F2E0DF0180E092E023
:103F50001D920197E9F7E0935302F09354028FEF1B
:103F60009FEF809351029093520281E08093570417
:103F700080935604109255048091D904811101C098
:103F800047D58AE091E0809301059093020531E0E6
:103F9000A32EB12CCE0101968F8398878091600467
:103FA00000E110E422E1F22E853009F4D1C00E9434
:103FB00000109CE6C92E94E0D92E84EC94E01C01FC
:103FC000FC01D6019D91808126E734E02A173B074A
:103FD00009F4C8C031969817A9F34090D90481E636
:103FE000E82E84E0F82E912CF10181901F01F6015A
:103FF00081916F01881509F442C08825582E00E090
:1040000010E077247394852D872189F1682C67202F
:104010004114F9F0F701808190E09501002E01C074
:10402000220F0A94EAF78223892B99F409839A8252
:104030000E94EB0F8B839C8381E08D8391E0611064
:1040400001C090E09E8349815A816B817C818D8182
:1040500051DD61100CC08A2D002E01C0880F0A941A
:10406000EAF7982F9095F701808189238083770C58
:104070000F5F1F4F0630110531F6F60182929394BF
:104080008FEFE81AF80A892D8A3009F0ADCF0E9427
:10409000A10ADD24D3946AC080E890E023CF85EFA5
:1040A00097E035CF80916004843029F10E94E40EBE
:1040B00010925E0488E190E00FB6F894A895809382
:1040C00060000FBE1093600083B7817F846083BF60
:1040D00083B7816083BF7894889583B78E7F83BFD1
:1040E0000FB6F894A8958091600088618093600075
:1040F000109260000FBE0E940010E4ECF4E0A1E614
:10410000B4E080E021912D9391E0211101C090E075
:10411000892B94E0EE3CF907A9F78115C9F080914D
:104120005F048115A9F009BDF9BC09B400FEFDCFFB
:104130008091D8008F7D8093D8008091E0008260CC
:104140008093E0008091E00081FDFCCF0E94CA14C2
:1041500080916004853009F4A5CF0E94CA140E94A2
:10416000D50925CF981339CF55DDD12CF090D9043E
:10417000F11419F00E949C14F82E80918504811589
:1041800051F0109285048091B2048093B304809121
:10419000B0048093B104E12C38C061E08E2D0E9400
:1041A0004D09182F60E08E2D0E944D09110F812BB3
:1041B0000E2D10E0D801A758BB4FEC919E2F9370A5
:1041C000891711F1EE0FEE0FE82BEC938091780434
:1041D0008E0DEF70F0E0E85AFE4F0A581B4FC0807A
:1041E000F8019081C90E9C2D60E092301CF49F3F35
:1041F0001CF461E00E940D098C2DCC0C990B62E03F
:1042000070E0A9D5F8018083E39480917B04E816DF
:1042100020F28091D904811519F00E949C14F82A8B
:10422000F11439F00E94A10A0E9480110E94C20E6E
:1042300004C00E948011D110F9CF86E0EEE2F5E0D3
:10424000AF81B88501900D928A95E1F790902F0586
:104250000091300510913105C0903205D0903305A2
:1042600010923005109231051092320510923305EC
:10427000812F802B09F441C0E0907E04F0907F04F0
:104280000E94EB0F8E199F099C0190912C059115AE
:1042900009F4B1C02531310580F19F3F19F09F5FCE
:1042A00090932C05011559F00E94900991E0101689
:1042B0000CF09FEF899F802D1124809330051115FC
:1042C00059F00E94900991E011160CF09FEF899F20
:1042D000802D11248093310580913005811569F07E
:1042E000F0903105F11449F00E9482098093300565
:1042F0008F2D0E948209809331058C2D8D2909F420
:1043000041C0E0907C04F0907D040E94EB0F8E1978
:104310009F099C0190912B05911509F467C02135E7
:10432000310580F19F3F19F09F5F90932B05C114D9
:1043300059F00E94B00991E01C140CF09FEF899F86
:10434000802D112480933205D11459F00E94B009B8
:1043500091E01D140CF09FEF899F802D1124809314
:10436000330580913205811569F0F0903305F11421
:1043700049F00E948209809332058F2D0E948209A4
:104380008093330580912F05981219C080913005D4
:10439000811511F0081313C020913105211511F07A
:1043A00012130DC090913305911511F09D1107C0A6
:1043B00030913205311103C0822B892B11F00E94FC
:1043C0000A1386E0EF81F885AEE2B5E001900D9228
:1043D0008A95E1F70E94D50990918004891709F424
:1043E000DDCD809380040E94950AD8CD2B30310515
:1043F00008F09ACFC7CF2B30310508F050CF7DCFD2
:1044000078941F921FB61F9211248F939F93AF939E
:10441000BF9380911F0290912002A0912102B09140
:1044200022020196A11DB11D80931F0290932002CC
:10443000A0932102B0932202BF91AF919F918F91DF
:104440001F901FBE1F9018951F920F920FB60F92CC
:1044500011242F933F934F935F936F937F938F9389
:104460009F93AF93BF93EF93FF938091E10082FFFF
:1044700009C08091E20082FF05C08091E1008B7F3E
:104480008093E1008091DA0080FF24C08091D80001
:1044900080FF20C08091DA008E7F8093DA008091C7
:1044A000D90080FFA9C080E189BD82E189BD09B43E
:1044B00000FEFDCF81E08093600480910E028111A7
:1044C00009C00E94F90B0E94AA0B8091E20084604F
:1044D0008093E2008091E10080FF1AC08091E200A9
:1044E00080FF16C08091E2008E7F8093E200809171
:1044F000E20080618093E2008091D8008062809326
:10450000D80019BC85E08093600483E080934F015C
:104510008091E10084FF2FC08091E20084FF2BC0D6
:1045200080E189BD82E189BD09B400FEFDCF8091A3
:10453000D8008F7D8093D8008091E1008F7E80939A
:10454000E1008091E2008F7E8093E2008091E200A2
:1045500081608093E20080910D02811509F452C0C0
:1045600084E08093600480916004843009F052C03C
:1045700082E080934F018091E10083FF2CC0809105
:10458000E20083FF28C08091E100877F8093E100F3
:1045900082E08093600410920D028091E1008E7F92
:1045A0008093E1008091E2008E7F8093E200809111
:1045B000E20080618093E20042E060E080E00E94DF
:1045C0002A0B8091F00088608093F00081E0809356
:1045D0004F0180934E01FF91EF91BF91AF919F9159
:1045E0008F917F916F915F914F913F912F910F909C
:1045F0000FBE0F901F90189519BC10926004109276
:104600000E0268CF8091E30087FF02C083E0A9CF4C
:1046100081E0A7CF81E0ADCF1F920F920FB60F922E
:1046200011241F932F933F934F935F936F937F9327
:104630008F939F93AF93BF93CF93DF93EF93FF93AA
:10464000E9EEF0E080811091EC008F7010FB1127F3
:1046500017F9182B1082C0EFD0E08881877F8883FC
:1046600078940E940315E9EEF0E01082888188605A
:1046700088831F701083FF91EF91DF91CF91BF91DD
:10468000AF919F918F917F916F915F914F913F91EA
:104690002F911F910F900FBE0F901F901895EF92C2
:1046A000FF921F93CF93DF93182FEB011092BC0062
:1046B00084EA8093BC000E94EB0F7C018091BC00D7
:1046C00087FF26C08091B900887F883029F08091CB
:1046D000B900887F803189F51093BB0084E880930E
:1046E000BC000E94EB0F7C018091BC0087FF1EC0C4
:1046F0002091B900287F80E090E0283189F081E0A6
:1047000090E0203409F480E091958195910908C0EA
:10471000C7010E94F70FC817D90780F68EEF9FEFE9
:10472000DF91CF911F91FF90EF900895C7010E94F4
:10473000F70FC817D907C0F6F1CF8FEF9FEFF0CF73
:104740001092B9008CE08093B80008950F931F93E6
:10475000CF93DF93EB018093BB0084E88093BC0090
:104760000E94EB0F8C018091BC0087FF10C020914C
:10477000B900287F81E090E0283209F480E091952B
:1047800081959109DF91CF911F910F910895CF3FAE
:10479000DC0749F3C8010E94F70FC817D90718F7BB
:1047A0008EEF9FEFEFCFA0E0B0E0E8EDF3E295C22F
:1047B000982E862E772E6A0179010E94EB0F5C01FC
:1047C00084E1E816F10410F18FEFE816FE0409F118
:1047D000C70164E170E068D2162F072F612F702F98
:1047E000892D5DDFEC01892BB1F4082D172DC00E4A
:1047F000D11E0C151D0511F02097C1F084E980939E
:10480000BC00CE01CDB7DEB7EDE083C211E000E021
:10481000E5CF15E0FCCF8FEFE816FE04F9F2C501F5
:104820000E94F70FE816F906C8F6DFCFB701F801C6
:1048300081918F018BDFEC01DCCFA0E0B0E0E2E200
:10484000F4E24BC2982E862E772E6A0189010E94CF
:10485000EB0F5C010431110500F10F3F100701F16E
:10486000C80164E170E020D2EB01BE01892D17DFA1
:104870007C01892BB9F4C82DD72DCC0EDD1ECC15AB
:10488000DD0519F0E114F104B9F084E98093BC006E
:10489000C701CDB7DEB7EDE03CC2C1E0D0E0E5CF67
:1048A000C5E0FCCF0F3F100701F3C5010E94F70FD1
:1048B00008171907D0F6DFCFFE018491B80146DF53
:1048C0007C012196DCCFA0E0B0E0E8E6F4E204C28F
:1048D000982E862E742E652E6901E8010E94EB0F3A
:1048E0005C010431110508F10F3F100711F1C801F7
:1048F00064E170E0D9D1F62EE72E6F2D7E2D892D43
:10490000CEDE8C01892BC1F0CF3FDC07B1F3C501AE
:104910000E94F70FC817D90780F784E98093BC007D
:10492000C801CDB7DEB7EEE0F3C1FF24F394E12C6C
:10493000E4CF85E0F82EFBCFBE01882D07DF8C0188
:10494000E72CF62CCE0CDF1CEC14FD0431F3011522
:10495000110519F7BE01F70181917F01F7DE8C0186
:10496000F3CF8EE14A9B02C08150E1F74A9BFECF14
:1049700008955A9880E28A95F1F75A9A0895FC01B1
:104980008BE08A95F1F728E080E090E031E040E1AB
:104990004A95F1F7880F4A9B02C08160932742E055
:1049A0004A95F1F7000040E14A95F1F7215079F777
:1049B00020E12A95F1F729B132E03A95F1F70000AC
:1049C00030E13A95F1F731E022FD93272081920FF3
:1049D00090830895A1E0B0E0EFEEF4E285C1198282
:1049E0008C017C01E60EF11CBCDFCE010196C7DF15
:1049F000F80181938F01EE15FF05B1F781E09981F0
:104A0000911180E02196E6E08BC1529A5A9A08955E
:104A100052985A9AEA9AE9E6F0E080818F7C808386
:104A200008956150770B91E001C0990F6A95EAF7FC
:104A3000692F90E021E0611108C0911591F05A9A18
:104A400080E28A95F1F75A980895362F382339F085
:104A50005A9A922730E23A95F1F76695ECCF5A9838
:104A6000F9CF5A98EDCFFF920F931F93CF93DF9317
:104A7000EC018C01060F111D8991F82E7ADF68E098
:104A80008F2DCFDFC017D107B9F7CDB7DEB7E5E07F
:104A900048C11F920F920FB60F9211240F931F93CC
:104AA0002F933F934F935F936F937F938F939F9336
:104AB000AF93BF93EF93FF93CF93DF930F92CDB755
:104AC000DEB719824EDFCE01019659DF082F069519
:104AD00006950695282F22952570902F9570920F98
:104AE000292F237096959695920F98279770898114
:104AF000892B09F055C0083008F052C080E18A9532
:104B0000F1F75A9A529A82E08A95F1F700C05A98C2
:104B100088E0089F80011124D801AC5EBE4F169634
:104B2000ED91FD911897309791F060916801709127
:104B3000690114962D913D91260F371F15978D9180
:104B40009D91680F791F4C9113978C910995F801ED
:104B5000EC5EFE4F6381611549F020916801309150
:104B6000690184819581820F931F7DDF02DF80E1DF
:104B70008A95F1F75A9852985A9A80E18A95F1F7F6
:104B8000F801EC5EFE4F6081611549F020916801EB
:104B90003091690181819281820F931F1BDFE1DED9
:104BA0000F90DF91CF91FF91EF91BF91AF919F91C6
:104BB0008F917F916F915F914F913F912F911F91B5
:104BC0000F910F900FBE0F901F9018950F931F938A
:104BD000CF93DF93EC0108970CF05EC0F894529AE3
:104BE0005A9885E08A95F1F700009C2F969595706C
:104BF0008C2F8570980F892F837096959695292F05
:104C000093E0CC0FDD1F9A95E1F7280F822F8C2BB4
:104C1000082FAFDE00C068E0802F03DF80E18A95B7
:104C2000F1F752985A9A4A9B30C087E090E04A992F
:104C30002EC0FE01EC5EFE4F6381611559F020919C
:104C400068013091690184819581820F931FC2DED2
:104C50008115F9F086DE80E28A95F1F75A98529A2A
:104C600080E18A95F1F7CC5EDE4F6881611549F0ED
:104C7000209168013091690189819A81820F931F87
:104C8000F2DE77DE789481E008C000C0CCCF0197D7
:104C900049F4529A5A9A789480E0DF91CF911F910B
:104CA0000F91089500C0C3CFAA1BBB1B51E107C0E1
:104CB000AA1FBB1FA617B70710F0A61BB70B881FAC
:104CC000991F5A95A9F780959095BC01CD0108953B
:104CD0002F923F924F925F926F927F928F929F920C
:104CE000AF92BF92CF92DF92EF92FF920F931F93FA
:104CF000CF93DF93CDB7DEB7CA1BDB0B0FB6F894AB
:104D0000DEBF0FBECDBF09942A88398848885F84EA
:104D10006E847D848C849B84AA84B984C884DF805B
:104D2000EE80FD800C811B81AA81B981CE0FD11D3F
:104D30000FB6F894DEBF0FBECDBFED0108959927E1
:104D400078E0880F991F961708F0961B881F7A95B0
:104D5000C9F78095089597FB072E16F4009406D0A6
:104D600077FD08D0A1DF07FC05D03EF49095819532
:104D70009F4F0895709561957F4F0895EE0FFF1F27
:104D80000590F491E02D0994FB01DC0102C005902F
:104D90000D9241505040D8F70895FB01DC0104C04A
:104DA0008D910190801921F441505040C8F7881B23
:104DB000990B0895FB01DC0102C001900D92415056
:104DC0005040D8F70895F999FECF92BD81BDF89A69
:104DD000992780B50895A8E1B0E042E050E020C0F6
:104DE000262FF999FECF92BD81BDF89A019700B4A4
:104DF000021639F01FBA20BD0FB6F894FA9AF99A44
:104E00000FBE08950396272FECDFEADF252FE9DF99
:104E1000242FE7CF0196272FE4DFE2CFDC01CB017F
:104E2000FC01F999FECF06C0F2BDE1BDF89A3196BA
:104E300000B40D9241505040B8F70895F894FFCF58
:104E40003E13441347134D1362136213621362132C
:104E500062136213621362135013551359135F13D5
:104E60006F1375137913E4150A1610160A16101627
:104E70005F168216101673178017451849182918DF
:104E800041184D1851185518B7181D19BF188A1810
:104E90008E18C3189218C718D3189E181619A2187E
:104EA000D718A618DB18FF18AA18DF180619AF18AC
:104EB000E418EC189618CB189A18CF18B318E818FD
:104EC000F6180E1914198418BB182419CA19CA190E
:104ED000001A001A911AAD1A271A271AB11A401B84
:044EE000511B511BF6
:104EE4000021007F22000301F4F5920A840C970C40
:104EF4009C0CA10C00000001000000000000000553
:104F04000100000005060000000000000000000190
:104F14000B000000000000080C000000000000006E
:104F24000000090904140000000000000000010052
:104F3400000810181810080000FF0100010000FF0D
:104F4400FF0000010001FF0098046697C63435F69F
:104F5400F731333236E200E900EA00B500B600B7B3
:104F640000CD008301CC008A019201940121022327
:104F74000224022502260227022A02B300B4006F8B
:104F84000070009F01CB019F02A002E200E900EA49
:104F940000B500B600B700CD008301CC008A0192B1
:104FA4000194012102230224022502260227022A57
:104FB40002B300B4006F0070009F01CB019F02A0F8
:024FC4000200E9
:00000001FF
